:100000000C942A000C94A01018950000189500007C
:10001000189500001895000018950000189500002C
:10002000189500001895000018950000189500001C
:10003000189500000C94DA1018950000189500002F
:1000400018950000189500001895000018950000FC
:10005000189500008FE58DBFC6E6E0E94E2E88E0DA
:100060008EBFD7E0F4E05F2EA89584B7082E877F77
:1000700084BF88E1992781BD91BDEEEFF7E0A0E64E
:10008000B0E088278D933197E9F787E689B980E05A
:1000900080BD88E18AB9662470E071B978E470B9EE
:1000A000BC9A8A980E94E5110E9472137091AB006D
:1000B00070687093AB0081E080936601789485B797
:1000C0008C7F826085BF579A7BB770647BBFC49A70
:1000D000E1E0F0E00E94C7110E94E6020E940704DE
:1000E0005A924A9288E0D2018C9381E00E941312C6
:1000F0005A924A9280E0D2018C9381E00E941312BE
:100100005A924A9280E0D2018C9381E00E941312AD
:100110000E94250B269683E00E946C1100918C00B2
:10012000013011F00C949F00E8E5F7E20E94B9114C
:100130000E94C01180E080938C000E9436080C94CD
:100140008E00F894FFCFC49870EB7FB991E0AFE2D6
:10015000B0E00E94DB110000000000000000000081
:10016000000000000000000000000000000000008F
:10017000000000000000000091E0A881B9810E9409
:10018000D011C49A0895C49873E07FB991E0AFE2AA
:10019000B0E00E94DB1191E0A881B9810E94DB11DF
:1001A000000000000000000000000000000000004F
:1001B000000000000000000000000000000000003F
:1001C000000091E0AA81BB810E94D011C49A0895D9
:1001D00081E00E940D12A881B981BA93AA935A9224
:1001E0004A928EE0D2018C9381E00E9413120E9409
:1001F000C300249681E00E946C1195E0A881B9812A
:100200000E943A12A881B9810C91003011F00C942F
:100210001101AA81BB81E8E6F7E20E9421120C9449
:100220003F01013011F00C941D01AA81BB81E4E76C
:10023000F7E20E9421120C943F01023011F00C945D
:100240002901AA81BB81E0E8F7E20E9421120C9407
:100250003F01033011F00C943501AA81BB81EEE817
:10026000F7E20E9421120C943F01043011F00C942B
:100270003F01AA81BB81E0EAF7E20E94211281E0FE
:10028000481A80E0580A2296089581E00E940D12D3
:10029000AA81BB81E4EBF7E20E942F1311F00C94CA
:1002A000A1015A924A928FE0D2018C9381E00E9480
:1002B00013125A924A9280EED2018C9381E00E94EE
:1002C00013125A924A9280E0D2018C9381E00E94EC
:1002D00013120E94E203269683E00E946C11A8810B
:1002E000B981BA93AA935A924A928FE0D2018C9321
:1002F00081E00E9413120E94C300249681E00E94B4
:100300006C1195E0A881B9810E943A12A881B98147
:100310000C91003011F40C949501ECEBF7E20E9483
:10032000B9110E94C0110C949B01E6EDF7E20E9406
:10033000B9110E94C01180E0A881B9818C930C94FE
:10034000E002E6EFF7E20E942F1311F00C94060290
:100350005A924A928FE0D2018C9381E00E9413124C
:100360005A924A9280EED2018C9381E00E9413123D
:100370005A924A9280E2D2018C9381E00E94131239
:100380000E94E203269683E00E946C11A881B98145
:10039000BA93AA935A924A928FE0D2018C9381E049
:1003A0000E9413120E94C300249681E00E946C11E7
:1003B000A881B9818C9180728C93ECEFF7E20E9456
:1003C000B911A8E7B4E0E881F9810E94F6120E9411
:1003D000B1110E94C011A881B9810C91003211F0B5
:1003E0000C94FA01E8E0F8E20E94B9110E94C011F1
:1003F0000C940002ECEBF7E20E94B9110E94C011CC
:1004000080E0A881B9818C930C94E002E8E4F8E2E2
:100410000E942F1311F00C946B025A924A928FE0B3
:10042000D2018C9381E00E9413125A924A9280EE7C
:10043000D2018C9381E00E9413125A924A9280E476
:10044000D2018C9381E00E9413120E94E20326964F
:1004500083E00E946C11A881B981BA93AA935A9241
:100460004A928FE0D2018C9381E00E9413120E9485
:10047000C300249681E00E946C11A881B9818C91FF
:1004800080748C93E2E5F8E20E94B911A8E7B4E029
:10049000E881F9810E94F6120E94B1110E94C011F8
:1004A000A881B9810C91003411F00C945F02EEE543
:1004B000F8E20E94B9110E94C0110C946502ECEBA5
:1004C000F7E20E94B9110E94C01180E0A881B981B1
:1004D0008C930C94E002E4E8F8E20E942F1311F0F0
:1004E0000C94D0025A924A928FE0D2018C9381E010
:1004F0000E9413125A924A9280EED2018C9381E0AC
:100500000E9413125A924A9280E6D2018C9381E0A3
:100510000E9413120E94E203269683E00E946C114F
:10052000A881B981BA93AA935A924A928FE0D201D4
:100530008C9381E00E9413120E94C300249681E0F4
:100540000E946C11A881B9818C9180768C93E2E530
:10055000F8E20E94B911A8E7B4E0E881F9810E94AD
:10056000F6120E94B1110E94C011A881B9810C91AC
:10057000003611F00C94C402ECE8F8E20E94B911C4
:100580000E94C0110C94CA02ECEBF7E20E94B91170
:100590000E94C01180E0A881B9818C930C94E00284
:1005A000E6EBF8E20E942F1311F00C94DA020895A2
:1005B0000C94E002ECEBF8E20E94B9110E94C01129
:1005C00081E0481A80E0580A22960895C49870EC99
:1005D0007FB9779B0C94E902C49AEF93FF93E4EC04
:1005E000F0E00E94CD11FF91EF915A924A928FE074
:1005F000D2018C9381E00E9413125A924A9288E8A9
:10060000D2018C9381E00E9413120E94C4032496AD
:1006100082E00E946C115A924A928BE2D2018C9332
:1006200081E00E9413125A924A9281E4D2018C9383
:1006300081E00E9413120E94C403249682E00E946B
:100640006C115A924A9280E3D2018C9381E00E940D
:1006500013125A924A9283E0D2018C9381E00E9455
:1006600013120E94C403249682E00E946C115A92D5
:100670004A928AE2D2018C9381E00E9413125A922C
:100680004A9283E0D2018C9381E00E9413120E946F
:10069000C403249682E00E946C115A924A9289E225
:1006A000D2018C9381E00E9413125A924A9280EAFE
:1006B000D2018C9381E00E9413120E94C4032496FD
:1006C00082E00E946C115A924A9288E2D2018C9385
:1006D00081E00E9413125A924A9282E0D2018C93D6
:1006E00081E00E9413120E94C403249682E00E94BB
:1006F0006C115A924A9280E6D2018C9381E00E945A
:1007000013125A924A9280E2D2018C9381E00E94A5
:1007100013120E94C403249682E00E946C115A9224
:100720004A9280E7D2018C9381E00E9413125A9280
:100730004A9280E2D2018C9381E00E9413120E94BF
:10074000C403249682E00E946C115A924A928FE070
:10075000D2018C9381E00E9413125A924A9280EE49
:10076000D2018C9381E00E9413125A924A9280E047
:10077000D2018C9381E00E9413120E94E20326961C
:1007800083E00E946C110895C49872E07FB9779B52
:100790000C94C703AA81BB818C918FB9779B0C9471
:1007A000CE03A881B9818C918FB9779B0C94D50326
:1007B000C49AEF93FF93E4ECF0E00E94CD11FF9117
:1007C000EF910895C49875E07FB9779B0C94E50389
:1007D000AC81BD818C918FB9779B0C94EC03AA817D
:1007E000BB818C918FB9779B0C94F303A881B9815D
:1007F0008C918FB9779B0C94FA03C49AEF93FF9373
:10080000E4ECF0E00E94CD11FF91EF910895E0ED4E
:10081000F8E20E94B9110E94C011E8EFF8E20E94CC
:10082000B9110E94C011E0E2F9E20E94B9110E94E0
:10083000C011E8E4F9E20E94B9110E94C011E8EF8A
:10084000F8E20E94B9110E94C011E0EDF8E20E94A6
:10085000B9110E94C011E0E7F9E20E94B9110E94AB
:10086000C011E2E7F9E20E94B9110E94C011089597
:10087000E0E7F9E20E94B9110E94C011E2E9F9E251
:100880000E94B9110E94C011EAE9F9E20E94B9116F
:100890000E94C011E4EEF9E20E94B9110E94C01159
:1008A000E4EFF9E20E94B9110E94C011EAE0FAE215
:1008B0000E94B9110E94C011E0E2FAE20E94B9114F
:1008C0000E94C011E0E3FAE20E94B9110E94C01137
:1008D000ECE6FAE20E94B9110E94C011E4EFF9E2DD
:1008E0000E94B9110E94C011EAE0FAE20E94B91117
:1008F0000E94C011E0E8FAE20E94B9110E94C01102
:10090000E0E2FAE20E94B9110E94C011E6E9FAE2BF
:100910000E94B9110E94C011ECEDFAE20E94B911D7
:100920000E94C011ECEFFAE20E94B9110E94C011BE
:10093000E4E4FBE20E94B9110E94C011EAE5FBE287
:100940000E94B9110E94C011E0E7FBE20E94B911B8
:100950000E94C011E2E8FBE20E94B9110E94C0119E
:10096000E0E2FAE20E94B9110E94C011E4E9FBE260
:100970000E94B9110E94C011E2ECFBE20E94B91181
:100980000E94C011EAECFBE20E94B9110E94C01162
:10099000EAEDFBE20E94B9110E94C011E8EFFBE210
:1009A0000E94B9110E94C011E0E2FAE20E94B9115E
:1009B0000E94C011E2E0FCE20E94B9110E94C01145
:1009C000E0E2FCE20E94B9110E94C011E2E3FCE205
:1009D0000E94B9110E94C011EAE4FCE20E94B91120
:1009E0000E94C011E6E7FCE20E94B9110E94C0110A
:1009F000E8E8FCE20E94B9110E94C011E2EAFCE2C0
:100A00000E94B9110E94C011E0EDFCE20E94B911F0
:100A10000E94C011E8E8FCE20E94B9110E94C011D6
:100A2000E4EEFCE20E94B9110E94C011E6E1FDE291
:100A30000E94B9110E94C011E8E8FCE20E94B911BD
:100A40000E94C011E8E2FDE20E94B9110E94C011AB
:100A5000ECE5FDE20E94B9110E94C011E2E3FCE264
:100A60000E94B9110E94C011ECE6FDE20E94B9118A
:100A70000E94C011EAE8FDE20E94B9110E94C01173
:100A8000E0E2FAE20E94B9110E94C011E2E9FDE23F
:100A90000E94B9110E94C011E6EAFDE20E94B9115C
:100AA0000E94C011E0E2FAE20E94B9110E94C01156
:100AB000E0EBFDE20E94B9110E94C011E4EDFDE2FD
:100AC0000E94B9110E94C011EEEDFDE20E94B91121
:100AD0000E94C011E0E2FAE20E94B9110E94C01126
:100AE000E6EFFDE20E94B9110E94C011E0E2FEE2D1
:100AF0000E94B9110E94C011E0E2FAE20E94B9110D
:100B00000E94C011E8E2FEE20E94B9110E94C011E9
:100B1000E8E4FEE20E94B9110E94C011E0E2FAE2AC
:100B20000E94B9110E94C011E0E5FEE20E94B911D5
:100B30000E94C011E8E6FEE20E94B9110E94C011B5
:100B4000E0E2FAE20E94B9110E94C011E2E7FEE27F
:100B50000E94B9110E94C011E0E7F9E20E94B911A8
:100B60000E94C011089581E00E940D1281E00E9450
:100B70000D12E2E9FEE20E94B911ACEAB0E00E9477
:100B8000B3110E94C011ACEAB0E00E942913AA81FF
:100B9000BB818C93ECEAF0E09CE20AE03BE0AFED35
:100BA000B0E00E944B13A881B9812C93AFEDB0E067
:100BB000ECE9FEE20E942F1311F00C940B06AAEE52
:100BC000B0E00E94C712A1EAB0E00D931C93A5EF1C
:100BD000B0E00E94C712A8E5B1E00C935A924A9285
:100BE000A1EAB0E08D919C91D2018D939C9382E01B
:100BF0000E9413125A924A9280915801D2018C930A
:100C000081E00E9413120E946D0C249683E00E94E2
:100C10006C110C940208E4EAFEE20E942F1311F01A
:100C20000C949506AAEEB0E00E94C712A1EAB0E0CB
:100C30000D931C93A5EFB0E00E94C712A8E5B1E0A8
:100C40000C9381E080936B004091580100916B0000
:100C5000041718F011F00C945E06ABE6B0E00D91AD
:100C60001C914BE050E00E941712A5EFB0E0A00FDE
:100C7000B11F0E94C712ABE6B0E0AD90BB24A8E55F
:100C8000B1E0AA0DBB1D0C93ABE6B0E0AD90BB2468
:100C9000A8E5B1E0AA0DBB1D8C91ABE6B0E0AD902C
:100CA000BB24A2EAB0E0AA0DBB1D8C93ABE6B0E07A
:100CB0008C918F5F8C9310F40C942406A881B981D9
:100CC0008C9183508C93A881B9814C9100915801EB
:100CD000041711F00C948D065A924A92A1EAB0E0E2
:100CE0008D919C91D2018D939C9382E00E9413126E
:100CF0005A924A9280915801D2018C9381E00E94CD
:100D00001312A3EAB0E0BA93AA930E942B0D269681
:100D100083E00E946C110C949306EAEAFEE20E94C2
:100D2000B9110E94C0110C940208ECEEFEE20E9480
:100D30002F1311F00C94D406AAEEB0E00E94C71253
:100D4000A8E5B1E00C93A5EFB0E00E94C712A9E5B9
:100D5000B1E00C93A0E0B1E00E94C712AAE5B1E0B7
:100D60000C935A924A9280915801D2018C9381E05F
:100D70000E9413125A924A9280915901D2018C9387
:100D800081E00E9413125A924A9280915A01D20134
:100D90008C9381E00E9413120E94250B269683E01B
:100DA0000E946C110C940208E4EFFEE20E942F13E3
:100DB00011F00C94DF060E9438040C940208E6EF50
:100DC000FEE20E942F1311F00C94F706ECEFFEE206
:100DD0000E94B911A8E7B4E0BA93AA930E94E80070
:100DE00022960E94B1110E94C0110C940208EAE000
:100DF000FFE20E942F1311F00C942407E0E1FFE2C0
:100E00000E94B9110E94C0115A924A928CE2D201FA
:100E10008C9381E00E9413125A924A9280E4D2018C
:100E20008C9381E00E9413125A924A9280E4D2017C
:100E30008C9381E00E9413120E94E203269683E0C5
:100E40000E946C110C940208EAE2FFE20E942F1348
:100E500011F00C944D07ABEAB0E08C9187FB88272A
:100E600080F9809580FBABEAB0E08C9187F98C9398
:100E7000E2E3FFE20E94B911ABEAB0E08C9187FB9C
:100E8000A8E7B4E00E9457128D9388278C930E94A4
:100E9000B1110E94C0110C940208EAE4FFE20E9422
:100EA0002F1311F00C9479070E944613A0E6B0E0CE
:100EB0003AE00E9494110E944313E2E9FEE20E948C
:100EC000B911A0E6B0E00E94B3110E94C0115A927D
:100ED0004A92E0E6F0E0D2010E9424138BE00E94E7
:100EE00013120E94450122968BE00E946C110C9413
:100EF0000208E2E5FFE20E942F1311F00C94C007F4
:100F0000AAEEB0E00E940A13A8E5B1E00C93A9E5AF
:100F1000B1E0BA93AA935A924A9280915801D201B1
:100F20008C9381E00E9413120E94C300249681E0FA
:100F30000E946C11A5EFB0E0E9E5F1E00E94F61225
:100F4000E8E5FFE20E94B911AAEEB0E00E94B311F9
:100F5000ECE6FFE20E94B911A5EFB0E00E94B311E8
:100F6000E0E7FFE20E94B911A8E7B4E0E9E5F1E0AB
:100F70000E947D120E94B1110E94C0110C940208BF
:100F8000E4E7FFE20E942F1311F00C94C9070C94C0
:100F90000208EAE7FFE20E942F1311F00C94D40735
:100FA0000E9407040C940208E0E8FFE20E942F135D
:100FB00011F00C94EB07E8E8FFE20E94B911A8E7F2
:100FC000B4E0E2E9FFE20E9421120E94B1110E9406
:100FD000C0110C940208E8E9FFE20E942F1311F0FF
:100FE0000C94FC070E94E602EEE9FFE20E94B911B0
:100FF0000E94C0110C940208EAEAFFE20E94B911B3
:101000000E94C011EAE9F9E20E94B9110E94C011E0
:10101000AFEDB0E088278C9380E0A881B9818C93F4
:10102000AA81BB814C91A881B9810C91041718F059
:1010300011F00C942D0880E0A881B981AD90BB24FB
:10104000ABEAB0E0AA0DBB1D8C93A881B9818C914D
:101050008F5F8C9310F40C94100881E080936601EC
:1010600082E0481A80E0580A2496089581E00E94A0
:101070000D1281E00E940D1281E00E940D1281E0AC
:101080000E940D1281E00E940D1281E00E940D125B
:1010900081E00E940D1281E00E940D1281E00E9409
:1010A0000D1281E00E940D1281E00E940D1281E07C
:1010B0000E940D1281E00E940D1281E00E940D122B
:1010C00081E00E940D1281E00E940D1281E00E94D9
:1010D0000D1281E00E940D12AAA1BBA1BA93AA939E
:1010E0005A924A928CE2D2018C9381E00E941312B0
:1010F0000E94C300249681E00E946C11AAA1BBA1AA
:101100008C91AA89BB898C9397E0AA89BB890E949C
:101110003A12AAA1BBA18C91AC89BD898C9396E0AF
:10112000AC89BD890E943A12AC89BD898C918170CD
:101130008C93AAA1BBA18C91AE89BF898C9395E0B9
:10114000AE89BF890E943A12AE89BF898C918170A5
:101150008C93AAA1BBA18C91A88DB98D8C9394E09E
:10116000A88DB98D0E943A12A88DB98D8C9181708D
:101170008C93AAA1BBA18C91AA8DBB8D8C9393E07B
:10118000AA8DBB8D0E943A12AA8DBB8D8C91817065
:101190008C93AAA1BBA18C91AC8DBD8D8C9392E058
:1011A000AC8DBD8D0E943A12AC8DBD8D8C9181703D
:1011B0008C93AAA1BBA18C91AE8DBF8D8C9391E035
:1011C000AE8DBF8D0E943A12AE8DBF8D8C91817015
:1011D0008C93AAA1BBA18C91A8A1B9A18C9397E0F3
:1011E000A8A1B9A10E94271297E0A8A1B9A10E94C5
:1011F0003A12ABEAB0E08C9187FB16F00C949C0994
:10120000EEEBFFE20E94B9110E94C011E4EDFFE293
:101210000E94B911A0E1B0E0BA93AA935A924A92FF
:101220008CE2D2018C9381E00E9413120E94C300D1
:10123000249681E00E946C11A8E7B4E0E0E1F0E0C0
:101240000E947D120E94B1110E94C011E6EEFFE2E1
:101250000E94B911A8E7B4E0EA89FB890E947D12D7
:101260000E94B1110E94C011E6E0F0E30E94B911A2
:10127000A8E7B4E0EC89FD890E947D120E94B111BB
:101280000E94C011EEE1F0E30E94B911A8E7B4E0BA
:10129000EE89FF890E947D120E94B1110E94C01147
:1012A000E6E3F0E30E94B911A8E7B4E0E88DF98D18
:1012B0000E947D120E94B1110E94C011E0E6F0E38D
:1012C0000E94B911A8E7B4E0EA8DFB8D0E947D125F
:1012D0000E94B1110E94C011EAE8F0E30E94B91126
:1012E000A8E7B4E0EC8DFD8D0E947D120E94B11143
:1012F0000E94C011E4EBF0E30E94B911A8E7B4E04A
:10130000EE8DFF8D0E947D120E94B1110E94C011CE
:10131000EAEDF0E30E94B911A8E7B4E0E8A1F9A171
:101320000E947D120E94B1110E94C011E0E0F1E321
:101330000E94B9110E94C011AA89BB890C91013089
:1013400011F00C94C1095A924A928CE2D2018C930A
:1013500081E00E9413125A924A9280E8D2018C9343
:1013600081E00E9413125A924A9280E0D2018C933B
:1013700081E00E9413120E94E203269683E00E94FD
:101380006C11AC89BD890C91013011F00C94E60907
:101390005A924A928CE2D2018C9381E00E941312FD
:1013A0005A924A9280E4D2018C9381E00E941312F7
:1013B0005A924A9280E0D2018C9381E00E941312EB
:1013C0000E94E203269683E00E946C11AE89BF89D9
:1013D0000C91013011F00C941D0BA889B989BA93B6
:1013E000AA935A924A928DE2D2018C9381E00E9494
:1013F00013120E94C300249681E00E946C11A889F8
:10140000B9898C91A881B9818C9397E0A881B98121
:101410000E943A12A889B9898C91AA81BB818C93C8
:1014200096E0AA81BB810E943A12AA81BB818C916D
:1014300081708C93A889B9898C91AC81BD818C9382
:1014400095E0AC81BD810E943A12AC81BD818C9146
:1014500081708C93A889B9898C91AE81BF818C935E
:1014600094E0AE81BF810E943A12AE81BF818C911F
:1014700081708C93A889B9898C91A885B9858C9342
:1014800093E0A885B9850E943A12A885B9858C9108
:1014900081708C93A889B9898C91AA85BB858C931E
:1014A00092E0AA85BB850E943A12AA85BB858C91E1
:1014B00081708C93A889B9898C91AC85BD858C93FA
:1014C00091E0AC85BD850E943A12AC85BD858C91BA
:1014D00081708C93A889B9898C91AE85BF858C93D6
:1014E00097E0AE85BF850E94271297E0AE85BF8545
:1014F0000E943A12ABEAB0E08C9187FB16F00C9494
:101500001D0BECE4F1E30E94B9110E94C011EEE55D
:10151000F1E30E94B911A0E1B0E0BA93AA935A9204
:101520004A928DE2D2018C9381E00E9413120E94B4
:10153000C300249681E00E946C11A8E7B4E0E0E1CA
:10154000F0E00E947D120E94B1110E94C011ECE6F1
:10155000F1E30E94B911A8E7B4E0E881F9810E94A3
:101560007D120E94B1110E94C011E8E8F1E30E94CF
:10157000B911A8E7B4E0EA81FB810E947D120E94C4
:10158000B1110E94C011E4EAF1E30E94B911A8E789
:10159000B4E0EC81FD810E947D120E94B1110E9495
:1015A000C011EAEBF1E30E94B911A8E7B4E0EE81C3
:1015B000FF810E947D120E94B1110E94C011E8EDCE
:1015C000F1E30E94B911A8E7B4E0E885F9850E942B
:1015D0007D120E94B1110E94C011E6EFF1E30E945A
:1015E000B911A8E7B4E0EA85FB850E947D120E944C
:1015F000B1110E94C011E4E1F2E30E94B911A8E721
:10160000B4E0EC85FD850E947D120E94B1110E941C
:10161000C011E2E3F2E30E94B911A8E7B4E0EE855D
:10162000FF850E947D120E94B1110E94C011E0E06E
:10163000F1E30E94B9110E94C0110E942B0E82E1B9
:10164000481A80E0580AA496089582E00E940D127C
:1016500082E00E940D1281E00E940D1281E00E9442
:101660000D125A924A928FE0D2018C9381E00E942F
:1016700013125A924A9280EED2018C9381E00E941A
:1016800013125A924A9280E8D2018C9381E00E9410
:1016900013120E94E203269683E00E946C11AC852F
:1016A000BD858C91AE81BF818D9388278C93AC854D
:1016B000BD858C91AC81BD818D9388278C9395E0FD
:1016C000AE81BF810E942F1293E0AC81BD810E9448
:1016D0004212AA85BB850C91003011F00C94F70BD7
:1016E000A885B9850C91003011F00C94B50BAC8134
:1016F000BD818C91AA81BB818C93AE81BF818C917D
:10170000A881B9818C935A924A9280E0D2018C933D
:1017100081E00E9413125A924A92AE81BF818C914D
:10172000D2018C9381E00E9413120E94C40324967C
:1017300082E00E946C115A924A9281E0D2018C930D
:1017400081E00E9413125A924A92AC81BD818C9121
:10175000D2018C9381E00E9413120E94C40324964C
:1017600082E00E946C110C94F50B013011F00C9486
:10177000F50BAC81BD818C91AA81BB818C93AE812C
:10178000BF818C91A881B9818C935A924A9284E04E
:10179000D2018C9381E00E9413125A924A92AE8138
:1017A000BF818C91D2018C9381E00E9413120E9420
:1017B000C403249682E00E946C115A924A9285E0FA
:1017C000D2018C9381E00E9413125A924A92AC810A
:1017D000BD818C91D2018C9381E00E9413120E94F2
:1017E000C403249682E00E946C110C94490CAA85D3
:1017F000BB850C91013011F00C94430CA885B98580
:101800000C91053011F00C94410CAC81BD818C9190
:10181000AA81BB818C93AE81BF818C91A881B98153
:101820008C935A924A9280E0D2018C9381E00E947C
:1018300013125A924A92AE81BF818C91D2018C933D
:1018400081E00E9413120E94C403249682E00E9449
:101850006C115A924A9281E0D2018C9381E00E94ED
:1018600013125A924A92AC81BD818C91D2018C9311
:1018700081E00E9413120E94C403249682E00E9419
:101880006C110C94490CE8E4F2E30E94B9110E9437
:10189000C0115A924A928FE0D2018C9381E00E944B
:1018A00013125A924A9280EED2018C9381E00E94E8
:1018B00013125A924A9280E0D2018C9381E00E94E6
:1018C00013120E94E203269683E00E946C1186E0C8
:1018D000481A80E0580A2896089582E00E940D1266
:1018E00082E00E940D1281E00E940D1281E00E94B0
:1018F0000D12A885B9850C91083018F011F00C94E0
:10190000830C0C948A0CECE5F2E30E94B9110E945E
:10191000C0110895AA85BB850D911C910F3F57E01A
:1019200015071CF011F00C94970C0C94AB0CEEE620
:10193000F2E30E94B911A8E7B4E0EA85FB850E94B2
:1019400076120E94B111E2E8F2E30E94B9110E94FE
:10195000C0110C94250DAA85BB858D919C91AE81FB
:10196000BF818D939C93AA85BB858D919C91AC8101
:10197000BD818D939C9395E0AE81BF810E942F1213
:1019800093E0AC81BD810E944212AC81BD818C91FB
:10199000AA81BB818C93AE81BF818C91A881B981D2
:1019A0008C935A924A9281E3D2018C9381E00E94F7
:1019B00013125A924A92AE81BF818C91D2018C93BC
:1019C00081E00E9413120E94C403249682E00E94C8
:1019D0006C115A924A9282E3D2018C9381E00E9468
:1019E00013125A924A92AC81BD818C91D2018C9390
:1019F00081E00E9413120E94C403249682E00E9498
:101A00006C11A885B9858C91805C8C935A924A920E
:101A100085E3D2018C9381E00E9413125A924A927C
:101A2000AC85BD858C91D2018C9381E00E9413120C
:101A30000E94C403249682E00E946C11C49871E84D
:101A40007FB9779B0C94210DC49A86E0481A80E0F8
:101A5000580A2896089582E00E940D1282E00E94A2
:101A60000D1281E00E940D1281E00E940D1281E0B2
:101A70000E940D1281E00E940D12AE85BF850C916F
:101A8000083018F011F00C94470D0C944E0DE4EB57
:101A9000F2E30E94B9110E94C0110895A889B98982
:101AA0000D911C910F3F57E015071CF011F00C949D
:101AB0005B0D0C94700DEEE6F2E30E94B911A8E7FD
:101AC000B4E0E889F9890E9476120E94B111E2E837
:101AD000F2E30E94B9110E94C01108950C94250EE2
:101AE000A889B9898D919C91AA85BB858D939C937A
:101AF000A889B9898D919C91A885B9858D939C936E
:101B000095E0AA85BB850E942F1293E0A885B98530
:101B10000E944212A885B9858C91AE81BF818C93B9
:101B2000AA85BB858C91AC81BD818C935A924A92D7
:101B300081E3D2018C9381E00E9413125A924A925F
:101B4000AA85BB858C91D2018C9381E00E941312EF
:101B50000E94C403249682E00E946C115A924A9219
:101B600082E3D2018C9381E00E9413125A924A922E
:101B7000A885B9858C91D2018C9381E00E941312C3
:101B80000E94C403249682E00E946C115A924A92E9
:101B900085E3D2018C9381E00E9413125A924A92FB
:101BA000AA89BB898C91D2018C9381E00E94131287
:101BB0000E94C403249682E00E946C1186E3A881EF
:101BC000B9818C9381E0AA81BB818C93AE85BF855E
:101BD0004C91AA81BB810C91041718F011F00C9460
:101BE0001E0E5A924A92AA81BB818C91D2018C938B
:101BF00081E00E9413125A924A92AE81BF81AD9049
:101C0000BB24A2EAB0E0AA0DBB1D8C91D2018C933B
:101C100081E00E9413120E94C403249682E00E9475
:101C20006C11A881B9818C918F5F8C93AA81BB8143
:101C30008C918F5F8C9310F40C94E60DC49871E82E
:101C40007FB9779B0C94210EC49A88E0481A80E0F3
:101C5000580A2C96089582E00E940D1282E00E949C
:101C60000D1281E00E940D1281E00E940D1281E0B0
:101C70000E940D1281E00E940D1281E00E940D125F
:101C800081E00E940D1281E00E940D1281E00E940D
:101C90000D1281E00E940D1284E00E940D1281E07D
:101CA0000E940D1280E090E0AE89BF898D939C93D5
:101CB00080E090E0A88DB98D8D939C9380E0AC89F5
:101CC000BD898C93ABE8B0E0BA93AA930E94A300BD
:101CD000229680918B00AE85BF858C9396E0AE8571
:101CE000BF850E943A12ABE8B0E08C91AC85BD850F
:101CF0008D9388278C93AC85BD850D911C9148E10F
:101D000050E004231523AC85BD850D931C9393E00F
:101D1000AC85BD850E94421280918B00AA85BB854F
:101D20008C93AA85BB858C9187708C93ABEAB0E0CD
:101D30008C9187FB16F00C94CD0EE4EDF2E30E943B
:101D4000B9110E94C011E2EEF2E30E94B911A8E7B6
:101D5000B4E0EE85FF850E947D120E94B1110E94C1
:101D6000C011ECEEF2E30E94B911A8E7B4E0EC85F3
:101D7000FD850E946E120E94B1110E94C011E4EF15
:101D8000F2E30E94B911A8E7B4E0EA85FB850E945E
:101D90007D120E94B1110E94C011AE85BF850C91C9
:101DA000023011F00C94DC0EEEEFF2E30E94B91158
:101DB0000E94C0110C949910AE85BF850C91013022
:101DC00011F00C949310E4E1F3E30E94B9110E9426
:101DD000C011AC85BD850D911C91003050E01507F8
:101DE00011F00C94F20FEAE2F3E30E94B9110E94A1
:101DF000C011C49870E97FB991E0AFE2B0E00E94F1
:101E0000DB110000000000000000000000000000E6
:101E100000000000000000000000000000000000C2
:101E20000000000091E0AE89BF890E94D01191E0CE
:101E3000A88DB98D0E94D01191E0A889B9890E941E
:101E4000D01191E0A889B9890E94D01191E0AC89A4
:101E5000BD890E94D011AC89BD890C9142E0040F6C
:101E6000AC81BD810C93AC89BD898C918F708C93B2
:101E700083E0A885B9858C93AC81BD814C91A88500
:101E8000B9850C91041718F011F00C945C0F91E0D7
:101E9000A885B985AD90BB24ABE8B0E0AA0CBB1C0B
:101EA000AA0DBB1D0E94D011A885B9858C918F5FAA
:101EB0008C9310F40C943C0F93E0AE89BF890E9480
:101EC0002F1295E0A88DB98D0E944212AE89BF896C
:101ED0008D919C91ADE8B0E08D939C93ADE8B0E01E
:101EE0000D911C91A88DB98D4D915C91042B152BF2
:101EF000ADE8B0E00D931C93AC89BD898C91AFE83F
:101F0000B0E08D9388278C93EEE3F3E30E94B91140
:101F1000A8E7B4E0EBE8F0E00E947D120E94B11166
:101F20000E94C011E8E4F3E30E94B911A8E7B4E00D
:101F3000EDE8F0E00E9476120E94B1110E94C011FB
:101F4000E8E5F3E30E94B911A8E7B4E0EFE8F0E0B8
:101F50000E9476120E94B1110E94C01181E0A881F6
:101F6000B9818C93AFE8B0E04D915C91A881B981C3
:101F70000D911127041715071CF011F00C94EA0FAE
:101F8000EAE6F3E30E94B911A8E7B4E0E881F98139
:101F90000E947D120E94B111ECE6FFE20E94B9118D
:101FA000A8E7B4E0E881F981A190BB24EFE8F0E074
:101FB000AA0CBB1CEA0DFB1D0E9476120E94B111F7
:101FC0000E94C011A881B9818C918F5F8C9310F40D
:101FD0000C94B20FE0E0F1E30E94B9110E94C0112D
:101FE0000C949110AC85BD850D911C91013050E091
:101FF000150711F00C949110E2E7F3E30E94B91178
:102000000E94C011C49870E97FB991E0AFE2B0E0DE
:102010000E94DB1100000000000000000000000032
:1020200000000000000000000000000000000000B0
:1020300000000000000091E0AE89BF890E94D0112D
:1020400091E0A88DB98D0E94D01191E0A889B9893D
:102050000E94D01191E0A889B9890E94D01191E025
:10206000AE81BF810E94D01193E0AE89BF890E94EA
:102070002F1295E0A88DB98D0E944212AE89BF89BA
:102080008D919C91ADE8B0E08D939C93ADE8B0E06C
:102090000D911C91A88DB98D4D915C91042B152B40
:1020A000ADE8B0E00D931C93AE81BF818C9180545C
:1020B0008C93AE81BF818C91AFE8B0E08D9388277F
:1020C0008C93EEE3F3E30E94B911A8E7B4E0EBE8E8
:1020D000F0E00E947D120E94B1110E94C011E8E45C
:1020E000F3E30E94B911A8E7B4E0EDE8F0E00E9444
:1020F00076120E94B1110E94C011E8E8F3E30E9439
:10210000B911A8E7B4E0EFE8F0E00E9476120E946F
:10211000B1110E94C011E0E0F1E30E94B9110E94E8
:10212000C0110C949910E2E9F3E30E94B9110E94E6
:10213000C011C49A82E1481A80E0580A6A9608954C
:102140000F921F922F923F924F925F927F92AF9287
:10215000BF920F931F932F933F934F935F936F9370
:102160007F938F939F93AF93BF93CF93DF93EF931F
:10217000FF938FB78F9381E080938C008F918FBFF7
:10218000FF91EF91DF91CF91BF91AF919F918F918F
:102190007F916F915F914F913F912F911F910F917F
:1021A000BF90AF907F905F904F903F902F901F9087
:1021B0000F9018950F921F922F923F924F925F921D
:1021C0007F92AF92BF920F931F932F933F934F93A2
:1021D0005F936F937F938F939F93AF93BF93CF93AF
:1021E000DF93EF93FF938FB78F93A5E6B1E08CB1A8
:1021F0008C93009165010D3011F00C940D1180E06D
:10220000A6E6B1E0AD90BB24ACEAB0E0AA0DBB1DE0
:102210008C930E94B3050C944D1100916501083018
:1022200011F00C941F1180E0A6E6B1E0AD90BB2444
:10223000AAEAB0E0AA0DBB1D8C930C944D1100913D
:1022400065010D3018F011F00C9428110C944D110B
:1022500080916501A6E6B1E0AD90BB24ABEAB0E0A9
:10226000AA0DBB1D8C93A6E6B1E08C918F5F8C9379
:1022700000916601013318F011F00C9441110C9497
:102280004D1180E0A6E6B1E0AD90BB24ACEAB0E031
:10229000AA0DBB1D8C930E94B3058F918FBFFF9138
:1022A000EF91DF91CF91BF91AF919F918F917F91EE
:1022B0006F915F914F913F912F911F910F91BF901F
:1022C000AF907F905F904F903F902F901F900F9016
:1022D0001895481A590A0895481A8827580A0895DF
:1022E00005D00E94171200FC0CD008950024E89439
:1022F00057FF02C009D0689400F80BD010F80124F1
:10230000089502D009D00895509540954F5F5F4FD2
:102310000895E89417FF0895009510950F5F1F4FDB
:1023200068940895A8E7B4E018D0883091F08D3013
:1023300039F03323C9F38D933A9563FE24D0F4CF5B
:1023400063FC04C08DE01FD08AE01DD088278C93E9
:10235000089519D011973395E7CF5F9BFECF8CB1CD
:102360000895A8E7B4E08D91882311F00CD0FBCF3D
:1023700008950E944D12802D11F005D0FACF0895D6
:102380008DE001D08AE05D9BFECF8CB9089588EE88
:1023900093E02FD03197D9F708953197F1F7089549
:1023A0000E94EC118C910E94EE118D939A95D1F7B9
:1023B0000E94ED1108950E94EC118D910E94EE1182
:1023C0009A95D9F70E94ED110895BF9ABE98C69AC2
:1023D000BD9A81E58DB90895089508958FB9779BC9
:1023E000FECF8FB10895689462F80895E89462F87A
:1023F0000895EF93FF93EE27E82BE92B31F0E0EA05
:10240000FFE03197F1F70197D1F7FF91EF91089530
:102410005A924A92480E591E08955A924A92480E6C
:102420008827581E0895480E8827581E08950F9231
:10243000B801469F8001479F100D569F100D0F90C9
:1024400008950E944D120D920020D9F70895903002
:1024500029F08C91880F9A95E9F78C930895903024
:1024600041F00D911C91000F111F9A95E1F71C93FB
:102470000E930895903029F08C9186959A95E9F7FE
:102480008C930895903041F00D911C91169507950D
:102490009A95E1F71C930E930895C8953196002004
:1024A0000895813618F08B3708F48F7D089580E306
:1024B0000EF483950895040F151F261F371F0895E6
:1024C000000F111F221F331F0895009510952095AE
:1024D00030950F5F1F4F2F4F3F4F0895019110818F
:1024E0000EC001911191219130810BC00191108199
:1024F00017FF05C03FEF2FEF04C0008111272227EF
:10250000332737FF03C0E1DF8DE28D93CF93DF9355
:10251000CF92DF92EF92AA24BB24CC24DD24EE24B8
:1025200040E2CAE0DD2755E093E38881890F87FD0B
:102530009F7083FD907F891B89935A95A9F7C0DF0F
:10254000AA1CBB1CCC1CDD1CEE1C4A9551F7E89460
:10255000EFE0FF2782910ED0EB30E0F71EF0689499
:102560008A2D0CD088278D93EF90DF90CF90DF914C
:10257000CF910895982F829501D0892F8F70805D1B
:1025800026F0803309F4089568948D930895002708
:102590001127222733271DD08A3328F4803318F0DF
:1025A00005D015D0F9CF0EF490CF089580538F93B6
:1025B000402F512F622F732F83DF82DF7CDF80DF7C
:1025C0008F919927080F191F291F391F08958D9181
:1025D0000895E894FCDF8032E9F38B32D9F3893037
:1025E000C9F38D3211F46894F2CF089541E003C02D
:1025F00042E001C044E0E40F8827F81F829138E0F0
:1026000098E1880F991F9D933A95D1F74A95B1F7B4
:102610000C94211300271127222733278D9188231B
:1026200079F04EDF4DDF4CDF4BDF3BDF815408F4A8
:10263000895F865F080F8827181F281F381FEECF75
:10264000089588278D93089581918D938823E1F7CC
:1026500008958FEF83959D919923E1F708956894EC
:1026600001C0E894AF93BF938D9116F0919103C090
:102670000E944D12902D891718F011F48823A1F7AC
:10268000BF91AF910895E89463F80895689463F852
:102690000895689401C0E8942227102F231709F4A5
:1026A000089526F40E944D12802D01C08191803042
:1026B00081F0891741F070E08D931A9591F7239579
:1026C00071E01D93EACF01D0E8CF703011F0772789
:1026D0000895772331F42395882713958D931A95C0
:1026E000E9F70895A998A898A198A0980895A09AA4
:1026F000A19803D0A09801D0A19AEF93FF93E0E1B5
:10270000F0E00E94CD11FF91EF910895A09AA19A57
:10271000F4DFA098989BFECFF0DFA198EECF08944D
:10272000111F01C0110F69F0A09A18F40000A198C0
:1027300002C0A19A00C0E1DFA098989BFECFDDDF28
:10274000F1CFA09AA198D9DFA098989BFECFE894EA
:102750009999689462F8D1CF4D435020496E7465C1
:1027600072727570742100004E6F726D616C204D35
:102770006F646500536C656570204D6F6465000083
:102780004C6F6F706261636B204D6F6465004C69C4
:102790007374656E2D6F6E6C79204D6F64650000EB
:1027A000436F6E66696775726174696F6E204D6FF5
:1027B000646500004E6F726D616C00004665686C68
:1027C0006572206265696D204D6F6475737765630E
:1027D0006873656C210052657475726E204465766D
:1027E00069636520696E746F204E6F726D616C2035
:1027F0004D6F64650000536C6565700052656164DF
:102800005F6D6F64653A2000446576696365206991
:102810007320676F696E6720746F20736C656570D5
:10282000206E6F772E2057616B65757020496E742E
:102830006572727570742077696C6C2062652065B2
:102840006E61626C65642E004C6F6F706261636BC9
:102850000000526561645F6D6F643A20000044655A
:102860007669636520697320676F696E6720746F8E
:10287000204C6F6F706261636B204D6F6465206EDA
:102880006F772E004C697374656E0000446576693D
:10289000636520697320676F696E6720746F204CD1
:1028A000697374656E2D6F6E6C79204D6F64652051
:1028B0006E6F772E0000517569740000556E677554
:1028C000656C746967652045696E676162652100A2
:1028D0002B2D2D2D2D2D2D2D2D2D2D2D2D2D2D2D2A
:1028E0002D2D2D2D2D2D2D2D2D2D2D2D2D2D2D2D18
:1028F0002D2D2D2D2D2D2B007C2020202020202043
:1029000020202020202020202020202020202020C7
:1029100020202020202020202020202020207C007B
:102920007C202020204465766963653A20202020A1
:1029300020202043414E2D4B6E6F74656E20202069
:102940002020202020207C007C2020202052656C2C
:1029500065617365646174756D3A2031312E313172
:102960002E323031322020202020202020207C00D8
:1029700000005479706520273F2720666F72206D14
:102980006F726520496E666F726D6174696F6E73E8
:102990002E0048696C66653A00002B2D2D2D2D2DDB
:1029A0002D2D2D2D2D2D2D2D2D2D2D2D2D2D2D2D57
:1029B0002D2D2D2D2D2D2D2D2D2D2D2D2D2D2D2D47
:1029C0002D2D2D2D2D2D2D2D2D2D2D2D2D2D2D2D37
:1029D0002D2D2D2D2D2D2D2D2D2D2D2D2D2D2D2D27
:1029E0002D2D2B002D2052656D6F74652C50312CD0
:1029F0005032000020202020205031202D204D6515
:102A00007373616765204944000020202020205016
:102A100032202D20446174616C656E67746800001B
:102A200020204465736372697074696F6E3A0000A8
:102A3000202020202053656E6420612052656D6F38
:102A400074656672616D6520776974682050312005
:102A5000617320494420616E6420503220617320EC
:102A6000446174616C656E6774682E002D2044614A
:102A700074612C50312C50322C50332D50380000C2
:102A8000202020202050332E2E2E202D2044617413
:102A9000616279746500202020202053656E6420D7
:102AA00061204D6573736167652077697468207470
:102AB0006865204C656E67746820503220616E64D2
:102AC00020746865204964656E7469666965722062
:102AD00050312E205031202D205038002020202031
:102AE00020636F6E7461696E732074686520446141
:102AF00074612028382D426974292E00202020205E
:102B0000204E6F74653A20546865204E756D62657D
:102B100072206F662044617461206D757374206249
:102B200065207468652073616D6520617320796F1D
:102B300075207370656369667920776974682050C1
:102B4000322E00002D2046696C7465722C50312C99
:102B500050322C50332C50340000202020202050A4
:102B600031202D2046696C74657276616C75650044
:102B700020202020205032202D204275666665726C
:102B8000000020202020205033202D2046696C7426
:102B90006572000020202020205365742046696C57
:102BA000746572205033206F6620427566666572C8
:102BB00020503220746F2056616C75652050312E84
:102BC00000002D204D6F6465000020204465736374
:102BD0007269747074696F6E3A0020202020205250
:102BE000657475726E2074686520446576696365E6
:102BF000204D6F64652E00002D204368616E67656F
:102C0000000020202020204368616E6765207468E2
:102C10006520446576696365204D6F64652E00000C
:102C200020202020202020202D3E204E6F726D611C
:102C30006C002020202020202020202020446573AC
:102C40006372697074696F6E3A0020202020202022
:102C500020202020202020205365742044657669A0
:102C6000636520696E746F204E6F726D616C204DCC
:102C70006F64652E000020202020202020202D3E83
:102C800020536C656570000020202020202020202B
:102C9000202020446573637269747074696F6E3AA2
:102CA0000000202020202020202020202020202064
:102CB000536574207468652044657669636520698E
:102CC0006E746F20536C656570204D6F64652E00C7
:102CD00020202020202020202D3E204C6F6F70626D
:102CE00061636B0020202020202020202020202035
:102CF0002020536574207468652044657669636597
:102D000020696E746F204C6F6F706261636B204D31
:102D10006F64652E000020202020202020202D3EE2
:102D2000204C697374656E00202020202020202014
:102D3000202020202020536574207468652044657D
:102D40007669636520696E746F204C697374656E73
:102D50002D6F6E6C79204D6F64652E002020202031
:102D6000202020202D3E2051756974002020202035
:102D700020202020202020202020517569742074DC
:102D8000686973204D6F64652E002D2057616B6557
:102D90000000202020202057616B6575702044655D
:102DA000766963652E002D204F7574707574000070
:102DB0002020202020456E61626C652F446973617C
:102DC000626C6520554152542046656564626163BA
:102DD0006B2E00002D20526561642C4131002020B3
:102DE0002020204131202D2052656769737465725F
:102DF0006E616D65000020202020205265616473A3
:102E0000206F757420612052656769737465722044
:102E100077697468204164726573732041312E00B4
:102E20002D2041626F757400202020202053686F90
:102E30007720536F667477617265696E666F726D25
:102E40006174696F6E2E00002D20526573657400E9
:102E50002020202020526573657420746865204D01
:102E60004350323531352E002D2056657273696F0F
:102E70006E00202020202053686F77207468652022
:102E8000536F66747761726576657273696F6E2EC3
:102E9000000045696E676162653A200052656D6F9A
:102EA000746500004461746100004665686C657279
:102EB00021205565626572676562656E65204461B3
:102EC00074656E207374696D6D656E206E696368DC
:102ED00074206D697420646572204C61656E67654D
:102EE00020756562657265696E21000046696C74C3
:102EF000657200003F004D6F6465000044657669AF
:102F000063656D6F64653A20000057616B65000072
:102F10004465766963652077696C6C20626520770B
:102F2000616B65206E6F772E00004F75747075743D
:102F300000005541525420466565646261636B2010
:102F4000456E61626C653A2000004368616E67659A
:102F50000000526561640000496E68616C742076FF
:102F60006F6E204164726573736520003A20000023
:102F7000203D200057726974650041626F757400CE
:102F800056657273696F6E0056657273696F6E3A3B
:102F90002000302E302E30005265736574004D4392
:102FA000502052657365742E0000556E62656B612A
:102FB0006E6E74652045696E6761626521002D2D16
:102FC0002D53746174757372656769737465722DBE
:102FD0002D2D0000496E7465727275707420466CF8
:102FE00061673A2000004D65737361676520457223
:102FF000726F7220496E7465727275707420466CBF
:1030000061673A20000057616B65757020496E74E6
:1030100065727275707420466C61673A2000457263
:10302000726F7220496E7465727275707420466C8E
:1030300061673A2000005472616E736D69742042BA
:103040007566666572203220456D70747920496E10
:103050007465727275707420466C61673A20000066
:103060005472616E736D6974204275666665722074
:103070003120456D70747920496E74657272757077
:103080007420466C61673A2000005472616E736D63
:10309000697420427566666572203020456D7074D3
:1030A0007920496E7465727275707420466C616720
:1030B0003A200000526563696576656275666665EB
:1030C0007220312046756C6C20496E746572727581
:1030D000707420466C61673A2000526563696576BA
:1030E0006562756666657220302046756C6C204995
:1030F0006E7465727275707420466C61673A200058
:103100002B2D2D2D2D2D2D2D2D2D2D2D2D2D2D2DF1
:103110002D2D2D2D2D2D2D2D2D2D2D2D2D2D2D2DDF
:103120002D2D2D2D2D2D2D2D2D2D2D2D2D2D2D2DCF
:103130002D2D2D2D2D2D2D2D2D2D2D2D2D2D2D2DBF
:103140002D2D2D2D2D2D2D2D2D2B00002D2D2D45F3
:1031500072726F7220466C61672D2D2D00004572D2
:10316000726F7220466C61673A2000005265636995
:10317000657665204275666665722031204F7665FA
:1031800072666C6F773A20005265636965766520D8
:103190004275666665722030204F766572666C6F88
:1031A000773A20004275732D4F6666204572726F24
:1031B0007220466C61673A2000005472616E736D34
:1031C0006974204572726F722D50617373697665F0
:1031D00020466C61673A2000526563696576652018
:1031E0004572726F722D5061737369766520466CFB
:1031F00061673A2000005472616E736D69742045F6
:1032000072726F72205761726E696E6720466C61D0
:10321000673A200052656369657665204572726F72
:1032200072205761726E696E6720466C61673A2042
:1032300000004572726F72205761726E696E67206E
:10324000466C61673A200000556E62656B616E6E78
:10325000746572204275666665720000556E67FC83
:103260006C74696765204CE46E67652100004964F1
:10327000656E7469666965722062657472E467746C
:10328000200020756E64206973742064616D697418
:10329000207A752067726FDF2E204D6178696D612D
:1032A0006C657220576572742069737420323034F3
:1032B00037210000556E67FC6C74696765204CE42B
:1032C0006E676520646572204E6163687269636829
:1032D000742100002D2D2D526563696576652D2DB5
:1032E0002D004275666665723A2000004672616D77
:1032F000653A200046696C7465723A2000004E61A0
:103300006368726963687420696E204275666665D9
:10331000722031004E616368726963687420696E5F
:10332000204275666665722030005374616E646178
:1033300072642044617461204672616D650053744B
:10334000617475733A2000004944204E61636872CD
:10335000696368743A2000004CE46E6765204E6132
:10336000636872696368743A2000446174656E2012
:1033700000005374616E646172642052656D6F74F5
:1033800065204672616D65004C61656E67653A2027
:1033900000004B65696E65206E657565204E616342
:1033A00068726963687420766F7268616E64656EB6
:0233B0002100FA
:00000001FF
