:100000000C942A0018950000189500000C94EA0042
:10001000189500001895000018950000189500002C
:10002000189500001895000018950000189500001C
:10003000189500001895000018950000189500000C
:1000400018950000189500001895000018950000FC
:10005000189500008FE58DBFC8E9E0ED4E2E88E0D1
:100060008EBFD7E0F6E05F2EA89584B7082E877F75
:1000700084BF88E1992781BD91BDEEEFF7E0A0E64E
:10008000B0E088278D933197E9F7662470E071B965
:1000900070E270B98FEF8ABB8FEF81BBC29A80ED9F
:1000A0008093660081ED8093670084B7806484BF8D
:1000B00078947BB770627BBF86E18093630089E1AF
:1000C0008093640080E08093650084E08093610009
:1000D0008DE0809362008CE08093600084E18093E7
:1000E00068000E94DA0000917000013011F00C9459
:1000F0007E000E949A0080E0809370000091710061
:100100000D3211F00C9489000E94910180E08093DF
:100110007100ADE6B0E08C918BBBAEE6B0E08C91A7
:1001200082BB75B77F70706A75BF88950C94730039
:10013000F894FFCF0E948603A6E6B0E01C910E94CF
:100140009E0310E00E949E030E948603A7E6B0E093
:100150001C910E949E030E94BD03AFE6B0E01C9379
:100160000E94BD03AEE6B0E01C930E94BD03ADE665
:10017000B0E01C930E94BD03ACE6B0E01C930E946B
:10018000BD03ABE6B0E01C930E94BD03AAE6B0E05D
:100190001C930E94BB03A9E6B0E01C930E94950348
:1001A000A9E6B0E09C910E943703A9E6B0E08C93E9
:1001B000089508950E948603A6E6B0E01C910E946F
:1001C0009E0317E00E949E0310E90E949E030E9476
:1001D000950308950F921F922F923F924F925F9234
:1001E0007F92AF92BF920F931F932F933F934F93A2
:1001F0005F936F937F938F939F93AF93BF93CF93AF
:10020000DF93EF93FF938FB78F9381E0809370001C
:10021000A1E7B0E08C918F5F8C938F918FBFFF919E
:10022000EF91DF91CF91BF91AF919F918F917F918E
:100230006F915F914F913F912F911F910F91BF90BF
:10024000AF907F905F904F903F902F901F900F90B6
:100250001895A5E6B0E08C910E943003A5E6B0E0C9
:100260008C93A4E6B0E08C910E943003A4E6B0E049
:100270008C93A3E6B0E08C910E943003A3E6B0E03B
:100280008C930E948603A6E6B0E01C910E949E0318
:1002900010E00E949E03A5E6B0E01C910E949E0320
:1002A000A4E6B0E01C910E949E03A3E6B0E01C917E
:1002B0000E949E030E9495030895A0E6B0E08C91F1
:1002C0000E943003A0E6B0E08C93A1E6B0E08C91F0
:1002D0000E943003A1E6B0E08C93A2E6B0E08C91DE
:1002E0000E943003A2E6B0E08C930E948603A6E64B
:1002F000B0E01C910E949E0314E00E949E03A2E6BF
:10030000B0E01C910E949E03A1E6B0E01C910E9407
:100310009E03A0E6B0E01C910E949E030E949503FC
:10032000089581E00E945B0381E00E945B0381E00D
:100330000E945B0381E00E945B0381E00E945B03FB
:1003400081E00E945B0381E00E945B0381E00E94E8
:100350005B0381E00E945B0381E00E945B0381E01C
:100360000E945B0381E00E945B0381E00E945B03CB
:10037000A9E6B0E08C910E943003AA81BB818C93E6
:10038000A8E6B0E08C910E943003A885B9858C93D3
:10039000AAE6B0E08C910E943003AE85BF858C93B5
:1003A000ABE6B0E08C910E943003AC89BD898C93A0
:1003B000AC89BD898C91A88DB98D8C9394E0A88D62
:1003C000B98D0E94610394E0A88DB98D0E946903E4
:1003D000AC89BD898C91AE89BF898C9394E0AE893C
:1003E000BF890E946903AE85BF858C91AA89BB89AC
:1003F0008C9394E0AA89BB890E94610394E0AA8946
:10040000BB890E946903AE85BF858C91A889B98993
:100410008C9394E0A889B9890E946903A885B9855D
:100420008C91AC85BD858C9394E0AC85BD850E9494
:10043000610394E0AC85BD850E946903A885B985F8
:100440008C91AA85BB858C9394E0AA85BB850E947C
:100450006903AA81BB818C91AE81BF818C9394E0AA
:10046000AE81BF810E94610394E0AE81BF810E9492
:100470006903AA81BB818C91AC81BD818C9394E08E
:10048000AC81BD810E94690370E07BBB70E072BBF0
:10049000AE89BF898C9182BB84EF91E00E944703B3
:1004A00094E0AE89BF890E946103AC89BD898C91BB
:1004B00082BB84EF91E00E94470394E0AE89BF893C
:1004C0000E94690394E0A88DB98D0E946103A88DF4
:1004D000B98D8C9182BBAE89BF898C918BBB84EF27
:1004E00091E00E94470394E0AE89BF890E946103B6
:1004F000A889B9898C9182BBAC89BD898C918BBB51
:1005000084EF91E00E944703A88DB98D8C918BBB3D
:10051000AE85BF858C9182BB84EF91E00E9447033A
:1005200094E0AA89BB890E946103AA89BB898C9146
:1005300082BBA889B9898C918BBB84EF91E00E9422
:100540004703AE85BF858C918BBBAA85BB858C91FB
:1005500082BB84EF91E00E944703AA89BB898C91FA
:100560008BBBA885B9858C9182BB84EF91E00E94FA
:10057000470394E0AC85BD850E946103AA85BB85D5
:100580008C918BBBAC85BD850C91AC81BD814C91B0
:10059000040FA881B9810C93A881B9818C9182BB89
:1005A00084EF91E00E944703A885B9858C918BBBAD
:1005B000AA81BB818C9182BB84EF91E00E944703AA
:1005C00094E0AE81BF810E946103A881B9818C91C2
:1005D0008BBBAE81BF818C9182BB84EF91E00E9486
:1005E0004703AA81BB818C918BBB70E072BB84EF07
:1005F00091E00E944703AE81BF818C918BBB84EF59
:1006000091E00E94470370E07BBB84EF91E00E9481
:100610004703ABE6B0E08C918BBBAAE6B0E08C91CF
:1006200082BBE4E0F0E00E941F0370E07BBB70E05F
:1006300072BB8DE0481A80E0580A6A96089588EEE9
:1006400093E025D03197D9F70895982F82958F7030
:10065000805D8D939F70905D9D9388278C93089506
:100660004AE0082F0E9471030295802B0895892F7C
:100670008F70905110F0865FFCCF08953197F1F79D
:100680000895689462F80895E89462F80895EF93E5
:10069000FF93EE27E82BE92B31F0E0EDF7E03197FF
:1006A000F1F70197D1F7FF91EF9108955A924A928D
:1006B000480E591E08955A924A92480E8827581E8D
:1006C0000895903029F08C91880F9A95E9F78C93D2
:1006D0000895903029F08C9186959A95E9F78C933E
:1006E0000895FF93881BF9E0001FFA9511F4FF911C
:1006F0000895881F841B18F4840F8894F5CF0894FC
:10070000F3CFA998A898A198A0980895A09AA19825
:1007100003D0A09801D0A19AEF93FF93E6E0F0E018
:100720000E943E03FF91EF910895A09AA19AF4DFF1
:10073000A098989BFECFF0DFA198EECF0894111FF0
:1007400001C0110F69F0A09A18F40000A19802C02E
:10075000A19A00C0E1DFA098989BFECFDDDFF1CF2A
:10076000A09AA198D9DFA098989BFECFE894999978
:10077000689462F8D1CF089401C08894331F11E0C7
:10078000A09AA198C9DFA098989BFECFC5DF889456
:1007900099990894111FA0F7A09A379510F4A19881
:1007A00001C0A19AB9DFA098989BFECFB5DF08954C
:00000001FF
